:100000000C9434000C943E000C943E000C943E0082
:100010000C943E000C943E000C943E000C943E0068
:100020000C943E000C943E000C943E000C943E0058
:100030000C943E000C943E000C943E000C943E0048
:100040000C943E000C943E000C943E000C943E0038
:100050000C943E000C943E000C943E000C943E0028
:100060000C943E000C943E0011241FBECFEFD8E04C
:10007000DEBFCDBF0E9440000C94AA000C9400008B
:10008000219A229A239A249A259A299A2FEF83ED6E
:1000900090E3215080409040E1F700C00000299893
:1000A0002FEF83ED90E3215080409040E1F700C0B6
:1000B00000002A9A2FEF83ED90E32150804090407A
:1000C000E1F700C000002A982FEF83ED90E3215064
:1000D00080409040E1F700C000002B9A2FEF83EDA5
:1000E00090E3215080409040E1F700C000002B9841
:1000F0002FEF83ED90E3215080409040E1F700C066
:1001000000002C9A2FEF83ED90E321508040904027
:10011000E1F700C000002C982FEF83ED90E3215011
:1001200080409040E1F700C000002D9A2FEF83ED52
:1001300090E3215080409040E1F700C000002D98EE
:100140002FEF83ED90E3215080409040E1F700C015
:0801500000009BCFF894FFCFE3
:00000001FF
